{
  "_format": "hh-sol-artifact-1",
  "contractName": "TodoList",
  "sourceName": "contracts/TodoList.sol",
  "abi": [
    {
      "anonymous": false,
      "inputs": [
        {
          "indexed": true,
          "internalType": "address",
          "name": "user",
          "type": "address"
        },
        {
          "indexed": true,
          "internalType": "uint256",
          "name": "taskId",
          "type": "uint256"
        },
        {
          "indexed": false,
          "internalType": "uint256",
          "name": "timestamp",
          "type": "uint256"
        }
      ],
      "name": "TaskCompleted",
      "type": "event"
    },
    {
      "anonymous": false,
      "inputs": [
        {
          "indexed": true,
          "internalType": "address",
          "name": "user",
          "type": "address"
        },
        {
          "indexed": true,
          "internalType": "uint256",
          "name": "taskId",
          "type": "uint256"
        },
        {
          "indexed": false,
          "internalType": "string",
          "name": "content",
          "type": "string"
        },
        {
          "indexed": false,
          "internalType": "uint256",
          "name": "timestamp",
          "type": "uint256"
        }
      ],
      "name": "TaskCreated",
      "type": "event"
    },
    {
      "anonymous": false,
      "inputs": [
        {
          "indexed": true,
          "internalType": "address",
          "name": "user",
          "type": "address"
        },
        {
          "indexed": true,
          "internalType": "uint256",
          "name": "taskId",
          "type": "uint256"
        },
        {
          "indexed": false,
          "internalType": "uint256",
          "name": "timestamp",
          "type": "uint256"
        }
      ],
      "name": "TaskDeleted",
      "type": "event"
    },
    {
      "anonymous": false,
      "inputs": [
        {
          "indexed": true,
          "internalType": "address",
          "name": "user",
          "type": "address"
        },
        {
          "indexed": true,
          "internalType": "uint256",
          "name": "taskId",
          "type": "uint256"
        },
        {
          "indexed": false,
          "internalType": "uint256",
          "name": "timestamp",
          "type": "uint256"
        }
      ],
      "name": "TaskUncompleted",
      "type": "event"
    },
    {
      "anonymous": false,
      "inputs": [
        {
          "indexed": true,
          "internalType": "address",
          "name": "user",
          "type": "address"
        },
        {
          "indexed": true,
          "internalType": "uint256",
          "name": "taskId",
          "type": "uint256"
        },
        {
          "indexed": false,
          "internalType": "string",
          "name": "newContent",
          "type": "string"
        },
        {
          "indexed": false,
          "internalType": "uint256",
          "name": "timestamp",
          "type": "uint256"
        }
      ],
      "name": "TaskUpdated",
      "type": "event"
    },
    {
      "inputs": [
        {
          "internalType": "string",
          "name": "_content",
          "type": "string"
        }
      ],
      "name": "createTask",
      "outputs": [],
      "stateMutability": "nonpayable",
      "type": "function"
    },
    {
      "inputs": [
        {
          "internalType": "uint256",
          "name": "_taskId",
          "type": "uint256"
        }
      ],
      "name": "deleteTask",
      "outputs": [],
      "stateMutability": "nonpayable",
      "type": "function"
    },
    {
      "inputs": [],
      "name": "getActiveTaskCount",
      "outputs": [
        {
          "internalType": "uint256",
          "name": "",
          "type": "uint256"
        }
      ],
      "stateMutability": "view",
      "type": "function"
    },
    {
      "inputs": [],
      "name": "getAllTasks",
      "outputs": [
        {
          "components": [
            {
              "internalType": "uint256",
              "name": "id",
              "type": "uint256"
            },
            {
              "internalType": "string",
              "name": "content",
              "type": "string"
            },
            {
              "internalType": "bool",
              "name": "completed",
              "type": "bool"
            },
            {
              "internalType": "uint256",
              "name": "createdAt",
              "type": "uint256"
            },
            {
              "internalType": "uint256",
              "name": "completedAt",
              "type": "uint256"
            }
          ],
          "internalType": "struct TodoList.Task[]",
          "name": "",
          "type": "tuple[]"
        }
      ],
      "stateMutability": "view",
      "type": "function"
    },
    {
      "inputs": [],
      "name": "getCompletedTasks",
      "outputs": [
        {
          "components": [
            {
              "internalType": "uint256",
              "name": "id",
              "type": "uint256"
            },
            {
              "internalType": "string",
              "name": "content",
              "type": "string"
            },
            {
              "internalType": "bool",
              "name": "completed",
              "type": "bool"
            },
            {
              "internalType": "uint256",
              "name": "createdAt",
              "type": "uint256"
            },
            {
              "internalType": "uint256",
              "name": "completedAt",
              "type": "uint256"
            }
          ],
          "internalType": "struct TodoList.Task[]",
          "name": "",
          "type": "tuple[]"
        }
      ],
      "stateMutability": "view",
      "type": "function"
    },
    {
      "inputs": [],
      "name": "getPendingTasks",
      "outputs": [
        {
          "components": [
            {
              "internalType": "uint256",
              "name": "id",
              "type": "uint256"
            },
            {
              "internalType": "string",
              "name": "content",
              "type": "string"
            },
            {
              "internalType": "bool",
              "name": "completed",
              "type": "bool"
            },
            {
              "internalType": "uint256",
              "name": "createdAt",
              "type": "uint256"
            },
            {
              "internalType": "uint256",
              "name": "completedAt",
              "type": "uint256"
            }
          ],
          "internalType": "struct TodoList.Task[]",
          "name": "",
          "type": "tuple[]"
        }
      ],
      "stateMutability": "view",
      "type": "function"
    },
    {
      "inputs": [
        {
          "internalType": "uint256",
          "name": "_taskId",
          "type": "uint256"
        }
      ],
      "name": "getTask",
      "outputs": [
        {
          "components": [
            {
              "internalType": "uint256",
              "name": "id",
              "type": "uint256"
            },
            {
              "internalType": "string",
              "name": "content",
              "type": "string"
            },
            {
              "internalType": "bool",
              "name": "completed",
              "type": "bool"
            },
            {
              "internalType": "uint256",
              "name": "createdAt",
              "type": "uint256"
            },
            {
              "internalType": "uint256",
              "name": "completedAt",
              "type": "uint256"
            }
          ],
          "internalType": "struct TodoList.Task",
          "name": "",
          "type": "tuple"
        }
      ],
      "stateMutability": "view",
      "type": "function"
    },
    {
      "inputs": [
        {
          "internalType": "address",
          "name": "_user",
          "type": "address"
        }
      ],
      "name": "getTaskCountForUser",
      "outputs": [
        {
          "internalType": "uint256",
          "name": "",
          "type": "uint256"
        }
      ],
      "stateMutability": "view",
      "type": "function"
    },
    {
      "inputs": [
        {
          "internalType": "address",
          "name": "",
          "type": "address"
        }
      ],
      "name": "taskCount",
      "outputs": [
        {
          "internalType": "uint256",
          "name": "",
          "type": "uint256"
        }
      ],
      "stateMutability": "view",
      "type": "function"
    },
    {
      "inputs": [
        {
          "internalType": "uint256",
          "name": "_taskId",
          "type": "uint256"
        }
      ],
      "name": "toggleTask",
      "outputs": [],
      "stateMutability": "nonpayable",
      "type": "function"
    },
    {
      "inputs": [
        {
          "internalType": "uint256",
          "name": "_taskId",
          "type": "uint256"
        },
        {
          "internalType": "string",
          "name": "_newContent",
          "type": "string"
        }
      ],
      "name": "updateTask",
      "outputs": [],
      "stateMutability": "nonpayable",
      "type": "function"
    }
  ],
  "bytecode": "0x608060405234801561001057600080fd5b506113a7806100206000396000f3fe608060405234801561001057600080fd5b50600436106100a95760003560e01c80635c41a3af116100715780635c41a3af14610152578063613137a4146101675780636c830f4b1461017a578063779900b41461018f57806386533f6c14610197578063c35b9030146101aa57600080fd5b8063082d1abb146100ae578063111002aa146100e15780631d65e77e146100f65780631f9f6c8114610116578063560f31921461013f575b600080fd5b6100ce6100bc366004610f0a565b60016020526000908152604090205481565b6040519081526020015b60405180910390f35b6100f46100ef366004610fdd565b6101b2565b005b61010961010436600461101a565b61034e565b6040516100d891906110c4565b6100ce610124366004610f0a565b6001600160a01b031660009081526001602052604090205490565b6100f461014d36600461101a565b6104b5565b336000908152600160205260409020546100ce565b6100f461017536600461101a565b6105f3565b6101826106f0565b6040516100d891906110d7565b6101826109bd565b6100f46101a536600461113b565b610aea565b610182610c45565b8060008151116102035760405162461bcd60e51b8152602060048201526017602482015276436f6e74656e742063616e6e6f7420626520656d70747960481b60448201526064015b60405180910390fd5b6101f4815111156102565760405162461bcd60e51b815260206004820181905260248201527f436f6e74656e7420746f6f206c6f6e6720286d6178203530302063686172732960448201526064016101fa565b336000908152602081815260408083208054825160a0810184528181528085018881529381018690524260608201526080810186905260018083018455928652939094208351600586029091019081559151908201906102b69082611206565b5060408281015160028301805460ff1916911515919091179055606083015160038301556080909201516004909101553360009081526001602052908120805491610300836112dc565b919050555080336001600160a01b03167f82e72578742f8dcfee5f2dbc5864ee537b7be2dae9a49e67a0b76fe2f0bfca2e85426040516103419291906112f5565b60405180910390a3505050565b6103826040518060a00160405280600081526020016060815260200160001515815260200160008152602001600081525090565b33600090815260208190526040902054829081106103b25760405162461bcd60e51b81526004016101fa90611317565b3360009081526020819052604090208054849081106103d3576103d3611344565b90600052602060002090600502016040518060a00160405290816000820154815260200160018201805461040690611182565b80601f016020809104026020016040519081016040528092919081815260200182805461043290611182565b801561047f5780601f106104545761010080835404028352916020019161047f565b820191906000526020600020905b81548152906001019060200180831161046257829003601f168201915b5050509183525050600282015460ff16151560208201526003820154604082015260049091015460609091015291505b50919050565b33600090815260208190526040902054819081106104e55760405162461bcd60e51b81526004016101fa90611317565b33600090815260208190526040812080548490811061050657610506611344565b90600052602060002090600502019050600081600101805461052790611182565b90501161056d5760405162461bcd60e51b815260206004820152601460248201527315185cdac8185b1c9958591e4819195b195d195960621b60448201526064016101fa565b604080516020810190915260008152600182019061058b9082611206565b5060028101805460ff19166001908117909155336000908152602091909152604081208054916105ba8361135a565b9091555050604051428152839033907f02bbd76d6e9e851bec7ac70df88076a8dfd56e0d8614144a169e61f062e7798890602001610341565b33600090815260208190526040902054819081106106235760405162461bcd60e51b81526004016101fa90611317565b33600090815260208190526040812080548490811061064457610644611344565b6000918252602090912060059091020160028101805460ff8082161560ff19909216821790925591925016156106b0574260048201819055604051908152839033907f50c83292cbed2e0e82c326c455870ed0cfe292eb185581159265e76147d205ea90602001610341565b60006004820155604051428152839033907fb8df35b2746dd7592e7da1eeccad508f5d3691678ca87e794503fd69c948d65390602001610341565b505050565b33600090815260208181526040808320805482518185028101850190935280835260609493849084015b8282101561081157838290600052602060002090600502016040518060a00160405290816000820154815260200160018201805461075790611182565b80601f016020809104026020016040519081016040528092919081815260200182805461078390611182565b80156107d05780601f106107a5576101008083540402835291602001916107d0565b820191906000526020600020905b8154815290600101906020018083116107b357829003601f168201915b5050509183525050600282015460ff16151560208083019190915260038301546040830152600490920154606090910152908252600192909201910161071a565b5050505090506000805b82518110156108875782818151811061083657610836611344565b602002602001015160400151801561086c5750600083828151811061085d5761085d611344565b60200260200101516020015151115b1561087f578161087b816112dc565b9250505b60010161081b565b5060008167ffffffffffffffff8111156108a3576108a3610f3a565b60405190808252806020026020018201604052801561090857816020015b6108f56040518060a00160405280600081526020016060815260200160001515815260200160008152602001600081525090565b8152602001906001900390816108c15790505b5090506000805b84518110156109b35784818151811061092a5761092a611344565b60200260200101516040015180156109605750600085828151811061095157610951611344565b60200260200101516020015151115b156109ab5784818151811061097757610977611344565b602002602001015183838151811061099157610991611344565b602002602001018190525081806109a7906112dc565b9250505b60010161090f565b5090949350505050565b33600090815260208181526040808320805482518185028101850190935280835260609492939192909184015b82821015610ae157838290600052602060002090600502016040518060a001604052908160008201548152602001600182018054610a2790611182565b80601f0160208091040260200160405190810160405280929190818152602001828054610a5390611182565b8015610aa05780601f10610a7557610100808354040283529160200191610aa0565b820191906000526020600020905b815481529060010190602001808311610a8357829003601f168201915b5050509183525050600282015460ff1615156020808301919091526003830154604083015260049092015460609091015290825260019290920191016109ea565b50505050905090565b3360009081526020819052604090205482908110610b1a5760405162461bcd60e51b81526004016101fa90611317565b816000815111610b665760405162461bcd60e51b8152602060048201526017602482015276436f6e74656e742063616e6e6f7420626520656d70747960481b60448201526064016101fa565b6101f481511115610bb95760405162461bcd60e51b815260206004820181905260248201527f436f6e74656e7420746f6f206c6f6e6720286d6178203530302063686172732960448201526064016101fa565b336000908152602081905260409020805484919086908110610bdd57610bdd611344565b90600052602060002090600502016001019081610bfa9190611206565b5083336001600160a01b03167f058af5d4c82557c927d98857c485446c8db432cb5f1f521b39b723e3546e7b4f8542604051610c379291906112f5565b60405180910390a350505050565b33600090815260208181526040808320805482518185028101850190935280835260609493849084015b82821015610d6657838290600052602060002090600502016040518060a001604052908160008201548152602001600182018054610cac90611182565b80601f0160208091040260200160405190810160405280929190818152602001828054610cd890611182565b8015610d255780601f10610cfa57610100808354040283529160200191610d25565b820191906000526020600020905b815481529060010190602001808311610d0857829003601f168201915b5050509183525050600282015460ff161515602080830191909152600383015460408301526004909201546060909101529082526001929092019101610c6f565b5050505090506000805b8251811015610ddd57828181518110610d8b57610d8b611344565b602002602001015160400151158015610dc257506000838281518110610db357610db3611344565b60200260200101516020015151115b15610dd55781610dd1816112dc565b9250505b600101610d70565b5060008167ffffffffffffffff811115610df957610df9610f3a565b604051908082528060200260200182016040528015610e5e57816020015b610e4b6040518060a00160405280600081526020016060815260200160001515815260200160008152602001600081525090565b815260200190600190039081610e175790505b5090506000805b84518110156109b357848181518110610e8057610e80611344565b602002602001015160400151158015610eb757506000858281518110610ea857610ea8611344565b60200260200101516020015151115b15610f0257848181518110610ece57610ece611344565b6020026020010151838381518110610ee857610ee8611344565b60200260200101819052508180610efe906112dc565b9250505b600101610e65565b600060208284031215610f1c57600080fd5b81356001600160a01b0381168114610f3357600080fd5b9392505050565b634e487b7160e01b600052604160045260246000fd5b600082601f830112610f6157600080fd5b813567ffffffffffffffff80821115610f7c57610f7c610f3a565b604051601f8301601f19908116603f01168101908282118183101715610fa457610fa4610f3a565b81604052838152866020858801011115610fbd57600080fd5b836020870160208301376000602085830101528094505050505092915050565b600060208284031215610fef57600080fd5b813567ffffffffffffffff81111561100657600080fd5b61101284828501610f50565b949350505050565b60006020828403121561102c57600080fd5b5035919050565b6000815180845260005b818110156110595760208185018101518683018201520161103d565b506000602082860101526020601f19601f83011685010191505092915050565b805182526000602082015160a0602085015261109860a0850182611033565b905060408301511515604085015260608301516060850152608083015160808501528091505092915050565b602081526000610f336020830184611079565b600060208083016020845280855180835260408601915060408160051b87010192506020870160005b8281101561112e57603f1988860301845261111c858351611079565b94509285019290850190600101611100565b5092979650505050505050565b6000806040838503121561114e57600080fd5b82359150602083013567ffffffffffffffff81111561116c57600080fd5b61117885828601610f50565b9150509250929050565b600181811c9082168061119657607f821691505b6020821081036104af57634e487b7160e01b600052602260045260246000fd5b601f8211156106eb576000816000526020600020601f850160051c810160208610156111df5750805b601f850160051c820191505b818110156111fe578281556001016111eb565b505050505050565b815167ffffffffffffffff81111561122057611220610f3a565b6112348161122e8454611182565b846111b6565b602080601f83116001811461126957600084156112515750858301515b600019600386901b1c1916600185901b1785556111fe565b600085815260208120601f198616915b8281101561129857888601518255948401946001909101908401611279565b50858210156112b65787850151600019600388901b60f8161c191681555b5050505050600190811b01905550565b634e487b7160e01b600052601160045260246000fd5b6000600182016112ee576112ee6112c6565b5060010190565b6040815260006113086040830185611033565b90508260208301529392505050565b60208082526013908201527215185cdac8191bd95cc81b9bdd08195e1a5cdd606a1b604082015260600190565b634e487b7160e01b600052603260045260246000fd5b600081611369576113696112c6565b50600019019056fea26469706673582212208020d2172f5dba132ab157d75bf79215310deadc4e1c89869da52b771159cb7b64736f6c63430008180033",
  "linkReferences": {},
  "deployedLinkReferences": {}
}